:02059800D22A65
:1005A200282B0313831611308500031383160F3093
:1005B2008600031383168030870003138316880195
:1005C2000313831689010313831681130113811602
:1005D200011281150313831285100511031383126F
:1005E2008601F030860403138312870103138312FA
:1005F2008801031383128901031383122D30A7008C
:10060200A801A901AA01AB01AC01FF30AD00AE0007
:10061200AF00B001B101B201B301B401B501B6013D
:10062200B701B801A2233924CB25FB26682703137F
:1006320083128B100B168B17E524AB2382273223F0
:100642000000000000000000DB2543271D2B0313E0
:1006520083128B1C312B8B10031383120130B800D1
:10066200090003138312B601031383122908B7008A
:1006720003138312B7080319462B0A30031383129C
:10068200B60703138312B703392B031383122A0805
:1006920003138312B60703138312B70103138312E2
:1006A2002708B50003138312B5080319602B0A301B
:1006B20003138312B70703138312B503532B0313D8
:1006C2008312280803138312B70703138312370810
:1006D200053E03138312B400031383123408031379
:1006E200831236020319772B0318932B03138312F9
:1006F2003708003C031383123708003C3708003EDA
:100702003708003E053003138312370203138312A6
:10071200B40003138312340803138312360203183E
:100722009D2B982B031383128510051508000313C4
:100732008312851405110800031383128510051115
:100742000800031383168E309F0003138312813037
:100752009F000800031383121F151F19AE2B0313EA
:1007620083161E0803138312B500031383121E0897
:10077200033903138312B400031383123508BC0038
:100782003408BD0003138312B901BA01BB0103137C
:1007920083128830BE001330BF00C0010A30C5008A
:1007A200031383123C1CEB2B031383123E08031327
:1007B2008312B907031383123F080313831203182A
:1007C200013EBA070313831240080313831203186E
:1007D200013EBB07031383120310BD0C03138312E4
:1007E200BC0C031383120310BE0D03138312BF0D3F
:1007F20003138312C00D03138312C50BD12B0A30CE
:10080200C600031383120310BB0C03138312BA0C2A
:1008120003138312B90C03138312C60B022C0313A6
:1008220083123908C1003A08C20003138312410837
:10083200C3004208C40003138312A90103138312E5
:10084200C408031D2A2C031383120A304302031C1B
:10085200342C031383120A30C302031CC403031390
:100862008312A90A1F2C031383124308AA0008004B
:10087200031383160F30860003138312F0308604AD
:1008820003138312AC01FF30AD00AE00AF000313BF
:10089200831230100800E0306E247824B600FF3056
:1008A2003606031D912CD0306E247824B600FF301A
:1008B2003606031D9E2CB0306E247824B600FF301D
:1008C2003606031DAB2C70306E247824B600FF3040
:1008D2003606031DB82CFF30080003138312B7003D
:1008E20006080F39370486000000000008000313D1
:1008F200831206080F390F3A0319872C061C892C1C
:10090200861C8B2C061D8D2C861D8F2CFF3008001B
:1009120000300800013008000230080003300800EF
:100922003608003A0319C72C3608013A0319CD2CB0
:100932003608023A0319D32CE12C3608003A03197F
:10094200C92C3608013A0319CF2C3608023A03198A
:10095200D52CC52C3608003A0319CB2C3608013A9F
:100962000319D12C3608023A0319D72CE32C360886
:10097200003A0319D92C3608013A0319DB2C360840
:10098200023A0319DD2CDF2C003008000130080088
:100992000230080003300800043008000530080067
:1009A2000630080007300800083008000930080047
:1009B2000A3008000B3008000C3008000D30080027
:1009C2000E3008000F30080003138312B808031911
:1009D200EB2CB8014C24B600FF3036060319042D67
:1009E20003138312301808003014031383122C08E7
:1009F2000319082D2C08013A0319152D2C08023A67
:100A020003194B2D08000313831230100800360817
:100A12000A3A031D0800013003138312AC00FF30B1
:100A2200AD00AE00AF00080036080F3A03196D2D75
:100A320036080E3A03193E2D36080A3A0319642D78
:100A42003608093C031C0800031383122D08FF3AE1
:100A52000319302D2E08FF3A0319372D080003130E
:100A62008312360803138312AD00080003138312A6
:100A7200360803138312AE000800031383122D08F5
:100A8200FF3A03190800023003138312AC00FF304F
:100A9200AF00080036080F3A03196D2D36080A3ADE
:100AA2000319642D3608093C031C08000313831242
:100AB2002F08FF3A031D080003138312360803139D
:100AC2008312AF000800013003138312AC00FF3021
:100AD200AD00AE00AF000800031383122D08FF3AE9
:100AE2000319C32D031383122E08FF3A0319C32DD2
:100AF200031383122F08FF3A031D802DAF01031346
:100B02008312AD080319C32D2D08053C031CC32D08
:100B12002D08053A031D972D03138312AE08031DFA
:100B2200C32D03138312AF08031DC32D03138312B6
:100B3200A701031383122D08B70003138312B7080A
:100B42000319AB2D0A3003138312A7070313831271
:100B5200B7039E2D031383122E0803138312A707D4
:100B6200031383122F0803138312A80003138312A3
:100B72000130B80003138312AC01FF30AD00AE00A8
:100B8200AF00080003138312AC01FF30AD00AE00CA
:100B9200AF00080003138312C701C801C901CA01CB
:100BA200CB0103138312B101B201B301E026E726A0
:100BB200242608000D262426E026031383124B0860
:100BC200003A0319ED2D4B08013A0319F32D4B0896
:100BD200023A0319F92DFF2D031383124708DC266D
:100BE200EB26042E031383124808DC26EF26042E7C
:100BF200031383124908DC26F326042E03138312FF
:100C02004A08DC26F72603138312CB0A04304B0270
:100C1200031C0800CB01080003138312B20AC83078
:100C22003202031C0800B201B30A0C303302031C67
:100C32000800B30103138312B10A03303102031C0B
:100C4200232EB1010800031383123108003A03195D
:100C5200312E031383123108013A0319512E712EDA
:100C62000F30C42603138312CA000313831227080A
:100C72009026031383124D08C42603138312C9005E
:100C8200031383124C08C426DA2603138312C80006
:100C9200031383122808C42603138312C700080013
:100CA2000F30C42603138312CA00031383122908C8
:100CB2009026031383124D08C42603138312C9001E
:100CC200031383124C08C426DA2603138312C800C6
:100CD200031383122A08C42603138312C7000800D1
:100CE2000F30C42603138312CA00031383122B0886
:100CF200A326031383162208C42603138312C900F2
:100D0200031383124D08C42603138312C80003136E
:100D120083124C08C42603138312C700080003136E
:100D22008312CD0103138312CC00031383120A3002
:100D32004C02031C08000A30CC0203138312CD0AB2
:020D4200962EEB
:100D460003138316A20103138312CD010313831227
:100D5600CC000313831264304C02031CB82E64309B
:100D6600CC0203138316A20AAC2E031383120A3095
:100D76004C02031C08000A30CC0203138312CD0A6E
:100D8600B82E0F3A0319D82E0F3ACC0006308A0037
:100D9600CE304C0782003F3406345B344F34663421
:100DA6006D347D3407347F346F340030080080386A
:100DB6000800031383128800080003138312071127
:100DC600871107128712080003138312880108008F
:100DD60003138312071508000313831287150800EF
:100DE60003138312071608000313831287160800DD
:100DF6000313831619309900031383161815181256
:100E06009816031383129817181618270800031349
:100E16008312B600031383120C1E0D2F03138312C5
:100E26000313831236089900080003138312981CD3
:100E3600080018121816080003138312B6003608A5
:100E4600F039B700370E0F3930270A2703138312FC
:100E560036080F3930270A270800303EB7003A30E7
:100E660037020318382F370808003708073E0800EE
:100E7600031383120008031908000A27840A3D2F6A
:100E860041300A273D300A270313831229081F27FA
:100E96002E300A27031383122A08303E0A272030F1
:100EA6000A2744300A273D300A27031383122708EE
:100EB6001F272E300A27031383122808303E0A27DD
:100EC6000D300A270A300A27080003138312A001EF
:100ED600A1010313831281010313831231309000A1
:100EE60003138312CF308F00031383122C308E002E
:100EF600031383120C1003138312AB0108000313B0
:100F060083120B1D8A2F0B1103138312A10A0313DD
:100F160083120C1C08000C1003138312CF308F00B1
:100F2600031383122C308E0003138312010803135C
:100F36008312A20003138312810103138312210873
:100F460003138312B70003138312A1010313831241
:100F5600B7080319B32F03138312FF30AB00080041
:100F660003138312220803138312B600031383129A
:100F7600B70103138312360803138312A200A20DCE
:100F8600A20DA20DA20D220803138312B7070313A5
:100F96008312360803138312A200A20DA20DA20D1E
:100FA600220803138312B7070313831236080313A9
:100FB6008312A200A20DA20D220803138312B70703
:100FC60003138312360803138312A200A20D22080C
:100FD60003138312B707031383123608083C031C56
:100FE600FB2F03138312370803138312AB00080089
:0A0FF60003138312FF30AB00080064
:02400E00713F00
:00000001FF
