:100B2A00962D031383160530850000308600983011
:100B3A008700013088000030890003138312850181
:100B4A008601870188018901A001A101B201132749
:100B5A00BA2507266526C527C7272A27C3252718A2
:100B6A00E025271411268026B12D0313831602309F
:100B7A009F000313831241309F000800031383125E
:100B8A009F121F129F110000000000001F151F195D
:100B9A00CC2D1E08A3001E08A4002308033C03183A
:100BAA00D82D0314D92D031003180800A7016430A7
:100BBA00A100A2010800031383129F121F169F119E
:100BCA000000000000001F151F19E92D1E08A500CE
:100BDA001E08A600AE01AF012508AE000310AE0C38
:100BEA002E08AF000310AF0C0310AF0C2F08AE0293
:100BFA002E08A100A20121085F3C0318062E6430CA
:100C0A00A100080003138312B2010230B200442685
:100C1A000313831286000800200821020319080022
:100C2A00031C222E182E0A30AE002E265A26AE0B90
:100C3A001A2E03138312A00A08000A30AE003926BE
:100C4A005A2603138312AE0B242E03138312A00316
:100C5A00080003138312B20A32080339B200442689
:100C6A00031383128600080003138312B2033208A7
:100C7A000339B200442603138312860008000313C3
:100C8A0083123208003A0319582E3208013A03191E
:100C9A00562E3208023A0319542E01300800023047
:100CAA0008000430080008300800031383122030BB
:100CBA00B5002030B600B60B602EB50B5E2E0800CC
:100CCA000827082703138312091030308800C92621
:100CDA000827C9260E27C9260E2720308800C926CC
:100CEA000E272830BB260C30BB260630BB26013027
:100CFA00BB26082708008030BB262B30BD263230A1
:100D0A00BD263530BD262E30BD263630BD26DF3015
:100D1A00BD264330BD262030BD262030BD262030DA
:100D2A00BD263930BD263830BD263530BD2668305F
:100D3A00BD265030BD266130BD26C030BB264C30A2
:100D4A00BD263A30BD262308E5264C30BD2675302F
:100D5A00BD267830BD262030BD262030BD2620088D
:100D6A00E5262530BD262030BD2608000910BF2EF5
:100D7A000914BF2EAE00F0398800C9262E0EF039AC
:100D8A008800C9260E270800891400000000000008
:100D9A00891008000F39303EBD260800B100003026
:100DAA00B0003108093C0318DE2E0A30B102B00A3D
:100DBA00D62E3008303EBD263108303EBD2608000A
:100DCA00B100AE013108633C0318EF2E6430B10262
:100DDA00AE0AE72E2E08031DF52E3030BD26F82E5A
:100DEA002E08303EBD26AE013108093C0318012FFA
:100DFA000A30B102AE0AF92E2E08303EBD2631085D
:100E0A00303EBD260800FA30B0000000B00B0A2FB1
:100E1A0008000A30B000B00B102F08000313831625
:100E2A008717071303138316193099002430980083
:100E3A0003138312903098000800031383120C1EC8
:100E4A00242F03138312990008008C1E0800981897
:100E5A007D2F1819802F1A08B0003008C039803A3F
:100E6A0003195D2F3008C039C03A0319612F3008C1
:100E7A00013A0319652F3008023A0319682F30081E
:100E8A00033A03196B2F3008043A03196E2F3008FE
:100E9A00053A0319712F3008063A0319742F3008DE
:100EAA00073A0319772F3008083A03197A2F0800EE
:100EBA0030083F39A200080030083F39A100080075
:100ECA000030222708002008222708002A082227A3
:100EDA0008002908222708002C08222708002B08C6
:100EEA0022270800240822270800230822270800AE
:100EFA001812181608001A08080003138316871513
:100F0A00071680309400910109309300831228302B
:100F1A009400080083161419902F11081F39031D15
:100F2A00902F831208008F2783161114831208004A
:100F3A008F2783169114831208008F2783161115A1
:100F4A00831208008F2793008F278316111BAF2F58
:100F5A000310B02F031483120800AE008F278316E4
:100F6A00911583128F271308B1008F2783162E1825
:100F7A00C02F9112C12F9116111683123108080041
:100F8A00822708009827EE30A727F430A7272E30AB
:100F9A00A727A2270530AE000827AE0BD12F982726
:100FAA00EE30A727F630A7279D27EF30A727003076
:100FBA00B227A9000130B227AA00A2279827EE304B
:100FCA00A727F430A7273430A727A2270530AE0079
:100FDA000827AE0BED2F9827EE30A727F630A72764
:100FEA009D27EF30A7270030B227AB000130B22788
:060FFA00AC00A227080074
:02400E00713F00
:00000001FF
